:100000000C9434000C9451000C9451000C94510049
:100010000C9451000C9451000C9451000C9451001C
:100020000C9451000C9451000C9451000C9451000C
:100030000C9451000C9451000C94DC000C94510071
:100040000C9451000C9451000C9451000C945100EC
:100050000C94E1020C9451000C9451000C9451004A
:100060000C9451000C94510011241FBECFEFD8E026
:10007000DEBFCDBF12E0A0E0B1E0EEEBF8E002C0E1
:1000800005900D92A430B107D9F713E0A4E0B2E0D7
:1000900001C01D92A830B107E1F70E94BE010C9487
:1000A0005D040C940000FB01DC018D91019080192E
:1000B0000110D9F3990B0895FC0101900020E9F794
:1000C000809590958E0F9F1F0895AF92BF92CF920B
:1000D000DF92EF92FF920F931F93DF93CF93CDB7F1
:1000E000DEB76F970FB6F894DEBF0FBECDBF9E8709
:1000F0008D87788B6F875A8B498B8D859E859887E6
:100100008F838F8598899A87898789899A899C871F
:100110008B87CE0101969C8B8B8BFE013796FE8BD5
:10012000ED8BF6E0FF8BED89FE8900808D899E893D
:1001300001969E8B8D8BEB89FC8900828B899C8933
:1001400001969C8B8B8B9F8991509F8BEF89EE231F
:1001500051F790E0998120E02A8130E03B8140E036
:100160004C8150E05D8180E08E81988F298F3A8F9D
:100170004B8F5C8F8D8FA88CB98CCA8CDB8CEC8CF0
:10018000FD8C0E8D1F8D2A2D3B2D4C2D5D2D6E2D42
:100190007F2D802F912F6F960FB6F894DEBF0FBE84
:1001A000CDBFCF91DF911F910F91FF90EF90DF9026
:1001B000CF90BF90AF9008951F920F920FB60F92FD
:1001C00011248F939F93AF93BF93EF93FF93DF938C
:1001D000CF93CDB7DEB780910402909105020196CE
:1001E000909305028093040280910402909105028D
:1001F0008536910564F0A5E2B0E0E5E2F0E090819B
:1002000080E289278C931092050210920402CF910C
:10021000DF91FF91EF91BF91AF919F918F910F90DF
:100220000FBE0F901F901895DF93CF93CDB7DEB719
:100230002C970FB6F894DEBF0FBECDBF49835A830B
:100240006B837C838D839E830E949E0289819A8129
:100250009C878B878B859C8581309105A9F08B8548
:100260009C85823091052CF48B859C85009721F12B
:100270001AC08B859C858230910559F08B859C85B1
:100280008330910559F00FC0E4E4F0E081E0808311
:1002900013C0E4E4F0E082E080830EC0E4E4F0E028
:1002A00083E0808309C080E091E00E9419038FEF12
:1002B0009FEF9A87898757C0E7E4F0E08D819E81A0
:1002C0008083EEE6F0E082E080838B819C819887DA
:1002D0008F838F8198858034910531F18F81988546
:1002E0008134910554F48F819885009799F08F811E
:1002F00098858830910599F026C08F81988521E0F6
:1003000080309207B1F08F81988524E08030920789
:10031000A9F019C0E5E4F0E081E080831DC0E5E4C8
:10032000F0E082E0808318C0E5E4F0E083E08083C1
:1003300013C0E5E4F0E084E080830EC0E5E4F0E083
:1003400085E0808309C089E591E00E9419038FEF61
:100350009FEF9A87898707C0789484E991E00E948B
:1003600019031A86198689859A852C960FB6F894F2
:10037000DEBF0FBECDBFCF91DF910895DF93CF9346
:10038000CDB7DEB76F970FB6F894DEBF0FBECDBF07
:100390000E949E0280E090E4ACE9B5E48B879C87E4
:1003A000AD87BE876B857C858D859E8520E030E09E
:1003B0004AE755E40E94D203DC01CB018F83988782
:1003C000A987BA876F81788589859A8520E030E092
:1003D00040E85FE30E94510388232CF481E090E021
:1003E0009E838D833FC06F81788589859A8520E0C3
:1003F0003FEF4FE757E40E94CE0318164CF56B858C
:100400007C858D859E8520E030E040E251E40E94AD
:10041000D203DC01CB01BC01CD010E945503DC01FC
:10042000CB019E838D830FC080E991E09C838B83F9
:100430008B819C810197F1F79C838B838D819E81B9
:1004400001979E838D838D819E81009769F714C0EB
:100450006F81788589859A850E945503DC01CB01DF
:100460009E838D838D819E819A83898389819A81E0
:100470000197F1F79A83898384EB91E00E94190335
:1004800082E090E060E074E04CE950E00E9465009A
:100490002D8B3E8B4F8B588F698F7A8FCE010F96A5
:1004A0009C8F8B8FFE017596FE8FED8FF6E0FF8F90
:1004B000ED8DFE8D00808D8D9E8D01969E8F8D8F92
:1004C000EB8DFC8D00828B8D9C8D01969C8F8B8F8C
:1004D0009F8D91509F8FEF8DEE2351F78F859889D7
:1004E0002FEC31E0B9010E945300009721F084ED18
:1004F00091E00E94190389899A89F4E080309F076E
:1005000021F480EE91E00E9419038B899C89833C41
:10051000910521F481EF91E00E941903A4E2B0E07B
:10052000E4E2F0E0808180628C934F85588969898C
:100530007A898B899C890E941401FFCFDF93CF9326
:10054000CDB7DEB7E5ECF0E01082E4ECF0E087E652
:100550008083E1ECF0E088E18083A1ECB0E0E1ECA5
:10056000F0E0808180648C93A1ECB0E0E1ECF0E0FD
:10057000808180688C937894E2ECF0E086E0808360
:10058000CF91DF910895DF93CF930F92CDB7DEB770
:10059000898380910702882F90E0FC01E857FD4F86
:1005A00089818083809107028F5F80930702809109
:1005B0000702882314F4109207020F90CF91DF9165
:1005C00008951F920F920FB60F9211248F939F934D
:1005D000AF93BF93EF93FF93DF93CF93CDB7DEB786
:1005E00090910602809107029817B1F0A6ECB0E056
:1005F00080910602882F90E0FC01E857FD4F808132
:100600008C93809106028F5F809306028091060290
:10061000882314F410920602CF91DF91FF91EF919D
:10062000BF91AF919F918F910F900FBE0F901F9030
:1006300018950F931F93DF93CF9300D00F92CDB7F0
:10064000DEB79B838A8319820EC08981282F30E010
:100650008A819B81FC01E20FF31F80810E94C3020B
:1006600089818F5F89838981082F10E08A819B812E
:100670000E945C000817190740F3E0ECF0E080816D
:10068000882F90E080729070009719F0E6ECF0E00F
:1006900010820F900F900F90CF91DF911F910F91CB
:1006A00008952FD008F481E0089557D088F09F571F
:1006B00090F0B92F9927B751A0F0D1F0660F771FAE
:1006C000881F991F1AF0BA95C9F712C0B13081F08E
:1006D0005ED0B1E008955BC0672F782F8827B85FA0
:1006E00039F0B93FCCF3869577956795B395D9F7EF
:1006F0003EF490958095709561957F4F8F4F9F4FF9
:100700000895990F0008550FAA0BE0E8FEEF1616A2
:100710001706E807F907C0F012161306E407F507F5
:1007200098F0621B730B840B950B39F40A2661F069
:10073000232B242B252B21F408950A2609F4A1400C
:10074000A6958FEF811D811D089557FD9058440F88
:10075000551F59F05F3F71F04795880F97FB991F20
:1007600061F09F3F79F087950895121613061406DD
:10077000551FF2CF4695F1DF08C01616170618066A
:10078000991FF1CF86957105610508940895E89445
:10079000BB2766277727CB0197F90895B2DF08F4C6
:1007A0008FEF08950BD078C069D028F06ED018F084
:1007B000952309F05AC05FC01124EACFC6DFA0F329
:1007C000959FD1F3950F50E0551F629FF001729FE6
:1007D000BB27F00DB11D639FAA27F00DB11DAA1F05
:1007E000649F6627B00DA11D661F829F2227B00D52
:1007F000A11D621F739FB00DA11D621F839FA00DDD
:10080000611D221F749F3327A00D611D231F849F2C
:10081000600D211D822F762F6A2F11249F57504083
:100820008AF0E1F088234AF0EE0FFF1FBB1F661F1E
:10083000771F881F91505040A9F79E3F510570F0D7
:1008400014C0A6CF5F3FECF3983EDCF38695779516
:100850006795B795F795E7959F5FC1F7FE2B880FD2
:10086000911D9695879597F9089597F99F6780E868
:1008700070E060E008959FEF80EC089500240A94F2
:100880001616170618060906089500240A9412166B
:100890001306140605060895092E0394000C11F49E
:1008A000882352F0BB0F40F4BF2B11F460FF04C04B
:0E08B0006F5F7F4F8F4F9F4F0895F894FFCFDB
:1008BE00496E76616C69642074696D6572206D6F26
:1008CE00646520696E7075742E2056616C696420A3
:1008DE00696E70757473206172653A206E6F726DF9
:1008EE00616C2C2070776D312C206374632C206624
:1008FE006173742070776D2C2072657365727665E6
:10090E00642C2070776D322E00496E76616C6964AE
:10091E00207072657363616C657220696E70757498
:10092E003A2076616C7565206D7573742062652052
:10093E00302C382C36342C323536206F7220313034
:10094E0032342E0054696D657220696E6974696166
:10095E006C697A6564207375636365737366756C11
:10096E006C792E004372656174696E672074696DCF
:10097E006572206F626A656374202E2E2E0A0074D3
:10098E00657374006D6F6465206D617463680A0031
:10099E007072657363616C6572206D617463680A51
:1009AE00007469636B73436F756E74206D6174634D
:0409BE00680A0000C3
:00000001FF
