:100000000C9434000C9451000C9451000C94510049
:100010000C9451000C9451000C9451000C9451001C
:100020000C9451000C9451000C9451000C9451000C
:100030000C9451000C9451000C9451000C945100FC
:100040000C9453000C9451000C9451000C945100EA
:100050000C9451000C9451000C9451000C945100DC
:100060000C9451000C94510011241FBECFEFD8E026
:10007000DEBFCDBF11E0A0E0B1E0E2E9F4E002C0F4
:1000800005900D92A230B107D9F711E0A2E0B1E0DE
:1000900001C01D92A430B107E1F70E9472000C94D8
:1000A00047020C9400001F920F920FB60F9211247A
:1000B0008F939F93EF93FF93DF93CF93CDB7DEB7EB
:1000C000E7E4F0E080910201909103018083CF91F9
:1000D000DF91FF91EF919F918F910F900FBE0F9045
:1000E0001F901895DF93CF93CDB7DEB72E970FB63D
:1000F000F894DEBF0FBECDBFEAE2F0E080E480837B
:10010000E4E4F0E083E88083EEE6F0E081E08083E1
:10011000E7E4F0E0809102019091030180837894FC
:10012000E5E4F0E085E0808380E090E0A8E4B2E4DC
:100130008B879C87AD87BE876B857C858D859E85EB
:1001400020E030E04AE755E40E94BC01DC01CB012D
:100150008F839887A987BA876F81788589859A85E3
:1001600020E030E040E85FE30E943B0188232CF46C
:1001700081E090E09E838D833FC06F817885898583
:100180009A8520E03FEF4FE757E40E94B801181628
:100190004CF56B857C858D859E8520E030E040E2C6
:1001A00051E40E94BC01DC01CB01BC01CD010E94E5
:1001B0003F01DC01CB019E838D830FC080E991E07C
:1001C0009C838B838B819C810197F1F79C838B832C
:1001D0008D819E8101979E838D838D819E81009765
:1001E00069F714C06F81788589859A850E943F01DF
:1001F000DC01CB019E838D838D819E819A838983CF
:1002000089819A810197F1F79A838983209102016C
:10021000309103018091000190910101820F931FA1
:100220009093030180930201809102019091030158
:10023000813F910564F080910001909101019095BA
:1002400081959F4F90930101809300016DCF809124
:100250000201909103018A3091050CF065CF8091E5
:10026000000190910101909581959F4F909301011C
:100270008093000159CF2FD008F481E0089557D022
:1002800088F09F5790F0B92F9927B751A0F0D1F07F
:10029000660F771F881F991F1AF0BA95C9F712C009
:1002A000B13081F05ED0B1E008955BC0672F782F48
:1002B0008827B85F39F0B93FCCF386957795679575
:1002C000B395D9F73EF490958095709561957F4FE1
:1002D0008F4F9F4F0895990F0008550FAA0BE0E824
:1002E000FEEF16161706E807F907C0F012161306F8
:1002F000E407F50798F0621B730B840B950B39F438
:100300000A2661F0232B242B252B21F408950A269D
:1003100009F4A140A6958FEF811D811D089557FD19
:100320009058440F551F59F05F3F71F04795880F63
:1003300097FB991F61F09F3F79F0879508951216FA
:1003400013061406551FF2CF4695F1DF08C01616A6
:1003500017061806991FF1CF869571056105089457
:100360000895E894BB2766277727CB0197F908956E
:10037000B2DF08F48FEF08950BD078C069D028F071
:100380006ED018F0952309F05AC05FC01124EACF4F
:10039000C6DFA0F3959FD1F3950F50E0551F629FE4
:1003A000F001729FBB27F00DB11D639FAA27F00DCE
:1003B000B11DAA1F649F6627B00DA11D661F829FF5
:1003C0002227B00DA11D621F739FB00DA11D621FDA
:1003D000839FA00D611D221F749F3327A00D611DF7
:1003E000231F849F600D211D822F762F6A2F1124D9
:1003F0009F5750408AF0E1F088234AF0EE0FFF1F2C
:10040000BB1F661F771F881F91505040A9F79E3F62
:10041000510570F014C0A6CF5F3FECF3983EDCF3BB
:10042000869577956795B795F795E7959F5FC1F79F
:10043000FE2B880F911D9695879597F9089597F94A
:100440009F6780E870E060E008959FEF80EC08957A
:1004500000240A94161617061806090608950024A3
:100460000A9412161306140605060895092E03941D
:10047000000C11F4882352F0BB0F40F4BF2B11F491
:1004800060FF04C06F5F7F4F8F4F9F4F0895F894B8
:02049000FFCF9C
:020492000A005E
:00000001FF
