:100000000C9434000C9451000C9451000C94510049
:100010000C9451000C9451000C9451000C9451001C
:100020000C9451000C9451000C9451000C9451000C
:100030000C9451000C9451000C9451000C945100FC
:100040000C9451000C9451000C9451000C945100EC
:100050000C943A010C9451000C9451000C945100F2
:100060000C9451000C94510011241FBECFEFD8E026
:10007000DEBFCDBF11E0A0E0B1E0E0E7F5E002C0F7
:1000800005900D92A035B107D9F712E0A0E5B1E0D7
:1000900001C01D92A235B107E1F70E945C000C94EB
:1000A000B6020C940000FC0101900020E9F7809555
:1000B00090958E0F9F1F0895DF93CF93CDB7DEB736
:1000C0002E970FB6F894DEBF0FBECDBF0E94F7008B
:1000D00080E090E4ACE9B5E48B879C87AD87BE8770
:1000E0006B857C858D859E8520E030E04AE755E470
:1000F0000E942B02DC01CB018F839887A987BA87E6
:100100006F81788589859A8520E030E040E85FE35B
:100110000E94AA0188232CF481E090E09E838D83C5
:100120003FC06F81788589859A8520E03FEF4FE752
:1001300057E40E94270218164CF56B857C858D8547
:100140009E8520E030E040E251E40E942B02DC0179
:10015000CB01BC01CD010E94AE01DC01CB019E832D
:100160008D830FC080E991E09C838B838B819C8180
:100170000197F1F79C838B838D819E8101979E83EC
:100180008D838D819E81009769F714C06F8178857A
:1001900089859A850E94AE01DC01CB019E838D8307
:1001A0008D819E819A83898389819A810197F1F754
:1001B0009A83898380E091E00E94720189E191E055
:1001C0000E94720180E391E00E94720182E391E05B
:1001D0000E94720184E391E00E9472018BE491E03D
:1001E0000E94720182E391E00E947201FFCFDF93CF
:1001F000CF93CDB7DEB7E5ECF0E01082E4ECF0E0B1
:1002000087E68083E1ECF0E088E18083A1ECB0E058
:10021000E1ECF0E0808180648C93A1ECB0E0E1EC53
:10022000F0E0808180688C937894E2ECF0E086E0E6
:100230008083CF91DF910895DF93CF930F92CDB755
:10024000DEB7898380915101882F90E0FC01EE5246
:10025000FE4F89818083809151018F5F809351018E
:1002600080915101882314F4109251010F90CF9185
:10027000DF9108951F920F920FB60F9211248F9362
:100280009F93AF93BF93EF93FF93DF93CF93CDB73C
:10029000DEB790915001809151019817B1F0A6EC12
:1002A000B0E080915001882F90E0FC01EE52FE4FAB
:1002B00080818C93809150018F5F80935001809159
:1002C0005001882314F410925001CF91DF91FF91D7
:1002D000EF91BF91AF919F918F910F900FBE0F90B3
:1002E0001F9018950F931F93DF93CF9300D00F9219
:1002F000CDB7DEB79B838A8319820EC08981282FF0
:1003000030E08A819B81FC01E20FF31F80810E9413
:100310001C0189818F5F89838981082F10E08A8180
:100320009B810E9453000817190740F3E0ECF0E0AE
:100330008081882F90E080729070009719F0E6EC31
:10034000F0E010820F900F900F90CF91DF911F91EE
:100350000F9108952FD008F481E0089557D088F0C8
:100360009F5790F0B92F9927B751A0F0D1F0660FA1
:10037000771F881F991F1AF0BA95C9F712C0B130BC
:1003800081F05ED0B1E008955BC0672F782F882799
:10039000B85F39F0B93FCCF3869577956795B395FB
:1003A000D9F73EF490958095709561957F4F8F4F6A
:1003B0009F4F0895990F0008550FAA0BE0E8FEEF34
:1003C00016161706E807F907C0F012161306E40719
:1003D000F50798F0621B730B840B950B39F40A2612
:1003E00061F0232B242B252B21F408950A2609F4F0
:1003F000A140A6958FEF811D811D089557FD90584E
:10040000440F551F59F05F3F71F04795880F97FBD8
:10041000991F61F09F3F79F0879508951216130692
:100420001406551FF2CF4695F1DF08C016161706C1
:100430001806991FF1CF86957105610508940895F6
:10044000E894BB2766277727CB0197F90895B2DF99
:1004500008F48FEF08950BD078C069D028F06ED0E3
:1004600018F0952309F05AC05FC01124EACFC6DF07
:10047000A0F3959FD1F3950F50E0551F629FF001B7
:10048000729FBB27F00DB11D639FAA27F00DB11D10
:10049000AA1F649F6627B00DA11D661F829F222799
:1004A000B00DA11D621F739FB00DA11D621F839F20
:1004B000A00D611D221F749F3327A00D611D231FF6
:1004C000849F600D211D822F762F6A2F11249F5744
:1004D00050408AF0E1F088234AF0EE0FFF1FBB1F67
:1004E000661F771F881F91505040A9F79E3F510506
:1004F00070F014C0A6CF5F3FECF3983EDCF3869516
:1005000077956795B795F795E7959F5FC1F7FE2BB0
:10051000880F911D9695879597F9089597F99F678C
:1005200080E870E060E008959FEF80EC089500247B
:100530000A941616170618060906089500240A9448
:1005400012161306140605060895092E0394000CCE
:1005500011F4882352F0BB0F40F4BF2B11F460FF5D
:1005600004C06F5F7F4F8F4F9F4F0895F894FFCF68
:1005700054657374696E672073657269616C20706D
:100580006F7274202E2E2E0A0053696E676C652DD3
:10059000646967697420696E74656765723A0A00F8
:1005A00034000A00446F75626C652D646967697474
:1005B00020696E74656765723A0A0032333134001F
:00000001FF
